:020000040800F2
:1000000000180020151E00085103000853030008C3
:1000100000000000000000000000000000000000E0
:100020000000000000000000000000005503000870
:1000300000000000000000005703000859030008FA
:10004000951E0008951E0008951E0008951E0008C4
:10005000951E0008951E0008951E0008951E0008B4
:10006000951E0008951E0008951E0008951E0008A4
:10007000951E0008951E0008951E0008951E000894
:10008000951E00080000000000000000951E0008FA
:1000900000000000951E0008951E0008951E00082F
:1000A00000000000951E0008951E0008951E00081F
:1000B000951E000800000000951E0008951E00080F
:1000C0000023C25C0133002AFBD1581E7047000098
:1000D00003B47146490840004900095E49008E4456
:1000E00003BC7047002934D00123002210B4884299
:1000F0002CD301242407A14204D2814202D2090157
:100100001B01F8E7E400A14204D2814202D2490077
:100110005B00F8E7884201D3401A1A434C08A0421A
:1001200002D3001B5C0822438C08A04202D3001BB0
:100130009C082243CC08A04202D3001BDC082243C7
:10014000002803D01B0901D00909E3E7100010BC07
:10015000704701B5002000F00BF802BD0029F8D06F
:1001600003B5FFF7C1FF0EBC4243891A1847C046CA
:100170007047C04610B5064C2378002B07D1054BBD
:10018000002B02D0044800E000BF0123237010BD03
:100190005C0000200000000008280008044B10B597
:1001A000002B03D00349044800E000BF10BDC04647
:1001B00000000000600000200828000830B583B06F
:1001C00001AC20700B7863709025ED0500220421AE
:1001D000280000F057FE0648064B0222210001F0DD
:1001E00017FC01220421280000F04CFE03B030BDB2
:1001F000080100201027000010B582B06B46DC1DFE
:10020000002323708C33237021001120FFF7D6FFC9
:10021000C023237021001620FFF7D0FF02B010BDCD
:1002200070B586B0050003AC0C4B220043CB43C233
:100230009026F60500220421300000F023FE084835
:10024000084B00930C232A00210001F0BBFC012283
:100250000421300000F016FE06B070BD2028000812
:10026000080100201027000072B6FEE710B598B014
:100270000BAC34220021200001F042FE10220021AC
:1002800007A801F03DFE1822002101A801F038FE68
:1002900002230B93013B0E930F330F93200000F0CA
:1002A0009DF8002816D107A8072307930023436071
:1002B0008360C360002100F06FFB00280CD101A80F
:1002C000012301930023836000F01EFC002805D168
:1002D00018B010BDFFF7C8FFFFF7C6FFFFF7C4FF58
:1002E00010B592B000F0DCFCFFF7C0FF00F02CFE70
:1002F00000F076FE01F084F9FFF77EFF03AC2000EA
:10030000FFF78EFF0022A35E0222A15E0422A05E00
:100310000C4A05AC019000913221200001F0BCFD97
:100320002000FFF7CDFE82B20748C823210001F06C
:1003300050F80821054800F0ABFD642000F0D2FC25
:10034000DCE7C0462C28000880000020000400489C
:10035000FEE7FEE77047704710B500F0B1FC10BD36
:1003600082B00A4B996901221143996199690A4047
:100370000092009ADA69802149050A43DA61DB6953
:100380000B400193019B02B07047C0460010024031
:100390007047000010B503000C4A0D49521A0D4970
:1003A0000968002907D00B490868C318934206D88A
:1003B000084A136010BD074907480860F3E701F0D9
:1003C000A7FD0C23036001204042F3E70018002042
:1003D0000004000078000020B802002070B582B050
:1003E000041E00D17FE20368DB072BD5B34B5A68AC
:1003F0000C231340042B1DD0B04B5A680C23134020
:10040000082B0ED06368012B41D0002B56D1AB4B8B
:100410001A68AB490A401A601A68AA490A401A6069
:100420003BE0A64B5B68C02252021340802252027E
:100430009342E7D1A14B1B689B0303D56368002B54
:1004400000D153E223689B0777D59C4B5B680C2255
:100450001A4262D0994B5A680C231340082B53D090
:10046000E368002B00D18AE0944A136801210B4312
:10047000136000F031FC0500904B1B689B0775D49E
:1004800000F02AFC401B0228F6D903202CE28B4AFC
:10049000116880235B020B4313606368002B25D037
:1004A00000F01AFC0500854B1B689B03CAD400F0C2
:1004B00013FC401B6428F6D9032015E2052B09D054
:1004C0007E4B1A687E490A401A601A687D490A40C4
:1004D0001A60E2E7794B19688022D2020A431A6057
:1004E0001968802252020A431A60D6E700F0F4FB32
:1004F0000500724B1B689B03A4D500F0EDFB401B6D
:100500006428F6D90320EFE16C4B5B68C0225202ED
:100510001340802212029342A2D1684B1B689B07B2
:1005200003D5E368012B00D0E2E164490B68F822AF
:1005300093432269D20013430B6023681B0744D501
:10054000E369002B2ED05D4A536A01210B435362AD
:1005500000F0C2FB0500594B5B6A9B0735D400F0E5
:10056000BBFB401B0228F6D90320BDE153490B68B1
:10057000F82293432269D20013430B60DDE74F4A10
:10058000136801218B43136000F0A6FB05004B4B61
:100590001B689B07D1D500F09FFB401B0228F6D9B2
:1005A0000320A1E1454A536A01218B43536200F0C5
:1005B00093FB0500414B5B6A9B0706D500F08CFB63
:1005C000401B0228F6D903208EE123685B0700D484
:1005D00080E03A4BDB69DB001DD4384BDA698021BF
:1005E00049050A43DA61DB690B400193019B012550
:1005F000354B1B68DB0510D5A368012B21D0002BE0
:1006000036D12E4B1A6A01218A431A621A6A0331C3
:100610008A431A621AE00025EAE72B4A1168802310
:100620005B000B43136000F057FB0600264B1B6872
:10063000DB05E1D400F050FB801B6428F6D90320D1
:1006400052E11E4A136A01210B431362A368002B77
:1006500024D000F041FB0600184B1B6A9B0737D4DF
:1006600000F03AFB801B194B9842F5D903203BE17F
:10067000052B09D0114B1A6A01218A431A621A6AA2
:1006800003318A431A62E1E70C4B1A6A04210A43D8
:100690001A621A6A03390A431A62D7E700F01CFB90
:1006A0000600064B1B6A9B0712D500F015FB801B4A
:1006B000064B9842F5D9032016E1C04600100240CF
:1006C000FFFFFEFFFFFFFBFF0070004088130000EC
:1006D000012D39D02368DB0610D56369012B39D091
:1006E000053357D1894A536B04218B435363536BB2
:1006F000F4318B43A169C9000B43536323689B0604
:100700006ED5824B5A680C2313400C2B60D07F4B64
:100710005A680C231340082B53D0236A002B7ED039
:100720007A4A516B80235B020B43536300F0D4FA87
:100730000500764B5B6B9B0352D400F0CDFA401B57
:100740000228F6D90320CFE0704AD36970490B40E4
:10075000D361BFE76D4B5A6B04210A435A635A6B4E
:1007600003390A435A6300F0B7FA0500674B5B6B25
:100770009B0706D400F0B0FA401B0228F6D90320EC
:10078000B2E062494B6BF8229343A269D200134353
:100790004B63B3E75D4B5A6B04210A435A635A6BB0
:1007A00003398A435A6300F097FA0500574B5B6B95
:1007B0009B07A3D500F090FA401B0228F6D903202E
:1007C00092E0524B5B68C022520213409342A4D184
:1007D0004E4B5B6B9B0303D5236A012B00D089E052
:1007E000636A002B00D187E0484A51680C220A4016
:1007F000082A60D0022B25D0444A136845490B4093
:10080000136000F069FA0400404B1B689B0150D54F
:1008100000F062FA001B0228F6D9032064E03B4A8C
:10082000536B3D490B40536300F056FA0500374BBC
:100830005B6B9B03D4D500F04FFA401B0228F6D91E
:10084000032051E0314A136832490B40136000F035
:1008500043FA05002D4B1B689B0106D500F03CFABE
:10086000401B0228F6D903203EE0284BDA6A0F210C
:100870008A43216B0A43DA625A6828490A40E16ACE
:10088000A06A01430A435A601968802252040A434D
:100890001A6000F021FA04001C4B1B689B0106D46F
:1008A00000F01AFA001B0228F6D903201CE00020F1
:1008B0001AE0002018E0012B20D0144B5A68D86AA7
:1008C000C0235B021340A16A8B4219D10F2303405E
:1008D000216B8B4216D1F0239B031A40E36A9A42A4
:1008E00012D1002000E0012002B070BD0120FBE722
:1008F0000120F9E70120F7E70020F5E70120F3E701
:100900000120F1E70120EFE70120EDE700100240B0
:10091000FFFFFFEFFFFFFFFEFFFFFEFFFF7FC2FFB6
:1009200010B5184B5A680C231340082B03D00C2B1E
:1009300025D1154810BD910C0F2319401348445C74
:100940001049C96A0B401249C95CC0235B021A40B6
:1009500080235B029A4208D0C0235B029A4209D0EE
:100960000C48FFF7BFFB6043E4E70A48FFF7BAFB18
:100970006043DFE70448FFF7B5FB6043DAE705486B
:10098000D8E7C04600100240006CDC026028000876
:100990005028000800127A0070B504000D000028ED
:1009A00000D186E0474B1A68012313408B420AD2DC
:1009B00044490B68012293432B430B600B681A4098
:1009C000AA4200D077E023689A070ED55B0705D5C9
:1009D0003D4A5168E023DB000B4353603A4A5368B9
:1009E000F0218B43A1680B4353602368DB0735D5A7
:1009F0006368012B09D0022B24D0032B28D0324A64
:100A00001268920705D4012052E02F4A126892031F
:100A100053D52D494A680320824313434B6000F0AD
:100A20005BF90600284B5B680C221A4063689B0048
:100A30009A4213D000F050F9801B244B9842F1D910
:100A4000032035E0204A12689201E2D401202FE011
:100A50001D4A526B9203DCD4012029E0194B1A681D
:100A600001231340AB4209D916490B680122934375
:100A70002B430B600B681A40AA4220D123685B0706
:100A800006D5114A536812490B40E1680B43536085
:100A9000FFF746FF0C4B5A6812090F2313400D4A0B
:100AA000D35CD8400C4B1860032000F0D1F8002034
:100AB00070BD0120FCE70120FAE70120F8E70120E2
:100AC000F6E7C046002002400010024088130000F4
:100AD000FFF8FFFF4028000800000020014B1868C5
:100AE0007047C0460000002010B5FFF7F7FF044B29
:100AF0005A68120A07231340024AD35CD84010BD3B
:100B0000001002403828000870B582B00400036865
:100B1000DB0339D5484BDB69DB0060D4464BDA692F
:100B2000802149050A43DA61DB690B400193019B8F
:100B30000125424B1B68DB0553D53F4B1A6AC02386
:100B40009B00110019401A4215D06368C022920020
:100B500013408B420FD0384B1A6A394911401E6A34
:100B60008020400230431862186A364E30401862C6
:100B70001962D20749D4304A136A31490B4061687F
:100B80000B431362012D4FD02368DB0706D52A4A99
:100B9000136B03218B43A1680B43136323689B06EC
:100BA00006D5254A136B10218B43E1680B43136371
:100BB00023689B0306D5204A136B80218B43616910
:100BC0000B43136323685B0533D51B4A136B40212A
:100BD0008B4321690B431363002002B070BD0025D5
:100BE000A7E7164A116880235B000B43136000F0EF
:100BF00073F80600114B1B68DB059ED400F06CF8FF
:100C0000801B6428F6D90320E7E700F065F80600AA
:100C1000094B1B6A9B07AED400F05EF8801B0A4BA1
:100C20009842F5D90320D8E7D36908490B40D3612E
:100C3000AAE70020D1E7C046001002400070004043
:100C4000FFFCFFFFFFFFFEFF88130000FFFFFFEF29
:100C500010B504000F4B1978FA208000FFF742FA14
:100C600001000D4B1868FFF73DFA00F069F9002804
:100C70000DD1032C01D901200AE00130002221000E
:100C8000404200F059F9054B1C60002000E00120B3
:100C900010BDC04604000020000000200800002015
:100CA00010B5064A136810210B4313600320FFF7A9
:100CB000CFFFFFF755FB002010BDC04600200240CB
:100CC000034A1168034B1B785B1813607047C046DA
:100CD0007C00002004000020014B18687047C046CB
:100CE0007C00002070B50400FFF7F6FF0500631CD0
:100CF00002D0044B1B78E418FFF7EEFF401BA04224
:100D0000FAD370BD04000020F0B583B0002356E094
:100D100086685F000324BC40A643CC68BC403443D3
:100D20008460446894434E683609012232409A40F8
:100D30002243426053E0DE080836B60037580532D9
:100D40001A4092000F249440A7430C69944022005B
:100D50003A43325056E0022600E00026A640340016
:100D60003C4302329200424E9451424A9768EA4311
:100D70003E00AE434C68E40201D53E002E433D4C9C
:100D8000A660E7683E0016404C68A40201D53E000C
:100D90002E43384CE66067683E0016404C68A4035A
:100DA00001D53E002E43334C6660266832404C68C5
:100DB000E40301D52A0032432E4C226001330C6833
:100DC0002200DA4051D001229A40250015401442F9
:100DD000F4D04E6803243440013C012C98D94C686F
:100DE00003222240032A08D0C4685E000322B240D6
:100DF00094438A68B2402243C2604C680322224076
:100E0000022A98D004685E0003221700B740BC4352
:100E10004F683A40B240224302604C68C0229202BE
:100E20001442CBD0144CA66901221643A661A469D2
:100E300022400192019A9A08941CA4000C4EA759D2
:100E400003241C40A4000F26A640B7439026F605B5
:100E5000B04282D0094EB04205D0094EB04200D116
:100E600079E705267AE7012678E703B0F0BDC046AA
:100E7000000001400004014000100240000400484E
:100E800000080048002A01D0816170478162FCE7B8
:100E9000426913000B401B0491430B43836170476D
:100EA00070B5002811DB8308134DC0339B005C59DB
:100EB00003221040C000FC3216008640B443890172
:100EC0000A40824022435A5170BD0F230340083B21
:100ED0009B0806339B00094A944663445C680322DE
:100EE0001040C000FC3215008540AC4389010A4027
:100EF000824022435A60E7E700E100E000ED00E0B5
:100F0000013880235B0498420FD2094A5060094897
:100F1000036A1B021B0AC02109060B43036200235C
:100F2000936007331360002070470120FCE7C04640
:100F300010E000E000ED00E010B5FFF7B1FF10BDDC
:100F400010B5FFF7DDFF10BDF0B5CE46474680B5C2
:100F500089B003AC14220021200000F0D1FF1E4B09
:100F60005A69802189020A435A615A690A400192EA
:100F7000019A5A698021C9020A435A615B690B4090
:100F80000293029B9023DB0599460122042118005D
:100F9000FFF778FF114D012208212800FFF772FFAB
:100FA00004230393033B98460493002705970326E5
:100FB000069621004846FFF7A7FE08230393434601
:100FC00004930597069621002800FFF79DFE09B0BF
:100FD000C0BCB946B046F0BD001002400004004855
:100FE00010B50C480C4B036096231B024360002392
:100FF0008360C36003610C2242618361C361036249
:10100000436200F0C7FA002800D110BDFFF72CF9A9
:10101000FBE7C046800000200038014010B588B0D2
:1010200004001422002103A800F06AFF2268134B79
:101030009A4201D008B010BD114B9A698021C901B4
:101040000A439A619A690A400192019A5A69802179
:1010500089020A435A615B690B400293029B03A910
:10106000C023DB00039302234B600133CB60023BC0
:101070000B619020C005FFF747FEDBE70038014019
:101080000010024010B5EFF3108C012282F310889B
:1010900001680B68124C23400B608CF31088EFF34F
:1010A000108C82F3108801688B6893438B608CF3FB
:1010B0001088036E012B06D080232022C25000230B
:1010C0000366836610BDEFF3108183F31088026816
:1010D00013683234FF34A343136081F31088EBE7C5
:1010E000DFFEFFFF10B50400836802691343426905
:1010F0001343C269134301680A684E480240134310
:101100000B60226853684C490B40E1680B43536005
:10111000A369226A1A4321688B6848480340134335
:101120008B602368464A934211D0464A93421FD0AF
:101130001023E06980221202904223D0042B6AD04F
:101140004ED8002B53D0022B48D13F4853E03F4BA1
:101150001A6B03231340022B0CD005D8002B0BD0A5
:10116000012B0BD10333E4E7032B09D1013BE0E76B
:101170000023DEE70823DCE70023DAE71023D8E7C3
:101180001023D6E7042B26D007D8002B09D0022B3A
:1011900001D12D4809E0012047E0082B05D00120AE
:1011A00043E0FFF7A1FC002838D0400061684B08FD
:1011B000C018FEF797FF0200103A254B9A422FD82D
:1011C00082B20F239A434008083B0340134322682E
:1011D000D360002029E0FFF7A3FBE4E7012024E02F
:1011E000082B02D18020000205E001201DE0FFF75E
:1011F0007BFC002816D061684B081818FEF772FFB8
:101200000200103A124B9A420ED823680004000CD8
:10121000D860002009E0FFF783FBEAE7002004E044
:10122000012002E0002000E001200023A366E36625
:1012300010BDC046F369FFEFFFCFFFFFFFF4FFFFD4
:10124000003801400044004000127A0000100240C3
:10125000EFFF0000436A1B0706D5026853682C495C
:101260000B40416B0B435360436ADB0706D50268B2
:10127000536828490B40816A0B435360436A9B07BC
:1012800006D50268536824490B40C16A0B4353607A
:10129000436A5B0706D50268536820490B40016B1F
:1012A0000B435360436ADB0606D5026893681C490A
:1012B0000B40816B0B439360436A9B0606D5026823
:1012C000936818490B40C16B0B439360436A5B06FC
:1012D0000BD50268536814490B40016C0B435360F3
:1012E000026C80235B039A420AD0436A1B0606D530
:1012F000026853680D490B40816C0B435360704783
:10130000026853680A490B40416C0B435360ECE799
:10131000FF7FFFFFFFFFFDFFFFFFFEFFFFFFFBFF64
:10132000FFEFFFFFFFDFFFFFFFFFEFFFFFFFF7FF15
:10133000FFFF9FFFF8B5CE46474680B506000D007B
:1013400017009946089B98463368DC692C40641B5B
:1013500063425C41BC4233D143460133F4D0FFF7D2
:10136000BBFC4B46C01A40452FD84346002B2ED01D
:10137000326813685B07E7D5802DE5D0402DE3D0B8
:10138000D3691B0710D4D3691B05DDD580231B014E
:1013900013623000FFF776FE84232022F2500C3BCC
:1013A0000022F25403200CE0082414623000FFF7FE
:1013B00069FE8423F4500C3B0022F254012000E02B
:1013C0000020C0BCB946B046F8BD0320F9E70320B1
:1013D000F7E7F0B5C64600B582B004000D009046B0
:1013E0001E00C36F202B61D1002964D0002A64D075
:1013F000826880235B019A4204D10369002B01D1EA
:10140000CB075CD484230022E250633BE367FFF701
:1014100063FC070050234246E2520233E252A268C4
:1014200080235B019A4202D00023984617E023698B
:10143000002B28D00023984611E02023E3670320E7
:1014400035E043461B882268DB05DB0D138502234C
:101450009C46E0445223E25A013A92B2E2525223AD
:10146000E35A002B12D000963B000022802120007E
:10147000FFF760FF0028E0D1002DE2D02A78236832
:101480001A850135E6E7A8460025E8E700963B0007
:10149000002240212000FFF74DFF002802D1202329
:1014A000E36704E02023E367032000E0022002B0AA
:1014B00080BCB846F0BD0120F9E70120F7E7012024
:1014C000F5E7000030B583B0040084230022C25049
:1014D000FFF702FC050023681B681B070FD4236875
:1014E0001B685B0729D42023E3678022A3500023D5
:1014F00023666366083AA354002003B030BD802100
:10150000224B00930300002289032000FFF712FF03
:101510000028E4D0EFF31081012383F310882268C0
:10152000136880208343136081F310882023E367CE
:1015300058330022E2547D38DFE78021134B0093BB
:101540002B000022C9032000FFF7F4FE0028CAD0B8
:10155000EFF31080012282F3108821680B680C4D94
:101560002B400B6080F31088EFF3108082F310881B
:1015700021688B6893438B6080F3108880231F322F
:10158000E250083B0022E2540320B6E7FFFFFF01D0
:10159000DFFEFFFF10B5041E2ED0C36F002B21D03D
:1015A0002423E3672268136801218B431360636A75
:1015B000002B1DD12000FFF795FD012811D02268D6
:1015C00053680E490B405360226893682A218B436D
:1015D00093602268136829390B4313602000FFF7DA
:1015E00071FF10BD78330022C254FFF717FDD7E713
:1015F0002000FFF72FFEDDE70120F2E7FFB7FFFF36
:1016000010B51248124B036082235B004360002335
:101610008360E022D200C26002220261013A42618C
:10162000802292008261D93AFF3AC261036243622A
:101630008362213AC2620363436300F067F90028C2
:1016400000D110BDFEF710FEFBE7C04608010020E8
:101650000030014010B588B004001422002103A816
:1016600000F04EFC2268124B9A4201D008B010BD27
:10167000104B9A69802149010A439A619A690A408C
:101680000192019A5A69802189020A435A615B6971
:101690000B400293029B03A9E0230393DE3B4B60C4
:1016A0000133CB609020C005FFF72EFBDEE7C0467C
:1016B0000030014000100240F0B5D6464F46464685
:1016C000C0B582B006000D0090461F00FFF704FB76
:1016D0000A9B181A8146B944FFF7FEFA82462C4B42
:1016E0001B685B011B0D4A465343019333689C689A
:1016F0002C40641B63425C41444542D07B1CF5D0C6
:10170000FFF7EAFA5346C01A484508D2019A002A60
:1017100000D04A46019B013B01939146E6E73268BF
:101720005368E0218B435360726882235B009A42C6
:101730000CD0B26A80239B019A4216D05D2301220D
:10174000F254013B0022F25403201BE0B3688022D4
:101750001202934203D08022D2009342E9D1326830
:10176000136840218B431360E3E73268136809492B
:101770000B4013603268116880239B010B43136098
:10178000DCE7002002B0E0BCBA46B146A846F0BD96
:1017900000000020FFDFFFFFF0B5DE4657464E4653
:1017A0004546E0B583B007000D00160098466B462D
:1017B0000022DA70FFF790FA0C9B181A4044814619
:1017C000FFF78AFA82463B689B46344B1B689A00B7
:1017D000D218D3009B1A1B0D4A465343019302E0D3
:1017E0004346013311D13B689C682C40B4424DD034
:1017F000C023DB009D42F3D1002EF1D15B461B7B61
:10180000DBB26A46D370D378EAE7FFF765FA53464E
:10181000C01A484508D2019A002A00D04A46019BC6
:10182000013B01939146DEE73A685368E0218B4320
:1018300053607A6882235B009A420CD0BA6A802394
:101840009B019A4216D05D230122FA54013B0022EB
:10185000FA5403201BE0BB6880221202934203D09B
:101860008022D2009342E9D13A68136840218B4329
:101870001360E3E73A68136809490B4013603A685C
:10188000116880239B010B431360DCE7002003B049
:10189000F0BCBB46B246A946A046F0BD0000002001
:1018A000FFDFFFFF70B582B004000D001600C021FD
:1018B00000922B0000224901FFF76EFF002818D18B
:1018C00000962B00002280212000FFF7F5FE002863
:1018D00016D1C02100962B000022C9002000FFF77E
:1018E0005BFF00280AD0236E2022134323660320C7
:1018F00004E0236E202213432366032002B070BD50
:10190000236E2022134323660320F7E770B5041EDD
:1019100000D178E0436A002B07D142680533FF33DA
:101920009A4205D00023C36102E0002303614361B2
:101930000023A3625D33E35C002B5AD05D230222B7
:10194000E2542268136840218B431360E368E0226D
:10195000D200934254D90022F02109018B4205D0D4
:10196000E021C9008B4201D00023A3626368822179
:1019700049000B40A1688420000201400B4320690C
:10198000022101400B436069012108400343A06923
:101990008025AD0028400343E569382028400343F3
:1019A000256A802028400343A06A8025AD01284095
:1019B000256803432B60608B04230340656A102075
:1019C00028400343656B082028400343E068F02566
:1019D0002D01284003432068134343602268D369E4
:1019E0000A480340D361002323665D33E15400209D
:1019F00070BD5C330022E2542000FFF72BFE9DE710
:101A000080225201A8E70120F2E7C046FFF7FFFF5E
:101A1000F0B5CE4600B584B00400019191461D009A
:101A20005C23C35C012B00D1C9E05C230122C254BA
:101A3000FFF752F906005D23E35CDFB2012B00D013
:101A4000B4E00199002900D1B1E04B46002B00D150
:101A5000ADE05D230322E25400232366A1634A46DE
:101A6000A287E28723644422A3520232A352236551
:101A7000E364A26880231B029A421ED02268136886
:101A80005B0603D4136840210B431360E268E02334
:101A9000DB009A423DD96368002B02D04B46012BF4
:101AA00020D1A26B23681288DA60A36B0233A36390
:101AB000E38F013B9BB2E38714E022681368402167
:101AC0008B431360226811688023DB010B43136092
:101AD000D4E7FFF701F9801BA84201D36B1C13D197
:101AE000002D11D0E38F002B45D0226893689B070F
:101AF000EFD5A36B1B88D360A36B0233A363E38F83
:101B0000013B9BB2E387EDE75D230122E25403270B
:101B10004DE06368002B02D04B46012B14D1A26B21
:101B2000236812781A73A36B0133A363E38F013B1D
:101B30009BB2E38708E0FFF7CFF8801BA84201D3F0
:101B40006B1C13D1002D11D0E38F002B13D0226812
:101B500093689B07EFD5A36B1B781373A36B0133BB
:101B6000A363E18F013989B2E187EDE75D230122AB
:101B7000E25403271BE0320029002000FFF792FE09
:101B8000002801D020232366A368002B06D10393ED
:101B90002368DA6803929B680393039B236E002BF0
:101BA00005D15D330122E254002700E002275C23C7
:101BB0000022E254380004B080BCB946F0BD0227D0
:101BC000F8E70000F0B583B00400009101921E0018
:101BD000089D5C23C35C012B00D116E15C2301222C
:101BE000C254FFF779F807005D23E35CD9B262685D
:101BF000012B0BD082235B009A4200D0F3E0A36854
:101C0000002B00D0F5E0042900D0F4E0009B002B6D
:101C100000D1F2E0019B002B00D1F0E0002E00D1BA
:101C2000EFE05D23E35C042B02D05D230522E25448
:101C300000232366019A22644622A652023AA65243
:101C4000009AA263E687A687E3642365E268E0233F
:101C5000DB009A4223D9226853686D490B405360D8
:101C600023681A68520603D41A6840210A431A608E
:101C7000E268E023DB009A4254D96368002B01D06C
:101C8000012E0AD1A26B23681288DA60A36B02339B
:101C9000A363E38F013B9BB2E38701262CE022681C
:101CA000516880235B010B435360D9E7A36B1B880A
:101CB000D360A36B0233A363E38F013B9BB2E38743
:101CC000002622689368DB070FD54623E35A002BD2
:101CD0000BD0D268236C1A80236C02332364462213
:101CE000A35A013B9BB2A3520126FEF7F5FFC01B8E
:101CF000A84201D36B1C10D1E38F002B03D14633D4
:101D0000E35A002B5ED0226893689B07D9D5E38FF6
:101D1000002BD6D0012ED4D1C8E75D230122E25496
:101D2000032061E06368002B01D0012E0AD1A26B71
:101D3000236812781A73A36B0133A363E38F013B0B
:101D40009BB2E38701261CE022689368DB070FD56E
:101D50004623E35A002B0BD0236C127B1A70236CA2
:101D6000013323644622A35A013B9BB2A3520126AE
:101D7000FEF7B2FFC01BA84201D36B1C1DD1002D82
:101D80001BD0E38F002B03D14633E35A002B19D02D
:101D9000226893689B07D7D5E38F002BD4D0012E00
:101DA000D2D1A36B1B781373A36B0133A363E38FAF
:101DB000013B9BB2E3870026C6E75D230122E25484
:101DC000032011E03A0029002000FFF76BFD0028F6
:101DD00002D0202323660120236E002B13D15D3314
:101DE0000122E25400E002205C230022E25403B00E
:101DF000F0BD0220F8E70220F6E70120F4E7012019
:101E0000F2E70120F0E70120EEE70220EFE7C0460D
:101E1000FFEFFFFF13488546FEF7BAFA1248016844
:101E2000090E124A914205D1114812490160124827
:101E30001249016012481349134A002302E0D458A2
:101E4000C4500433C4188C42F9D3104A104C0023F8
:101E500001E013600432A242FBD300F05FF8FEF70A
:101E60003FFAFEE700180020040000001F000000F9
:101E700018100240010000000000014000000000B6
:101E8000000000205C000020AC2800085C0000205E
:101E9000B4020020FEE700000CB430B5174B0C0074
:101EA0001D689DB0002908DA8B2301202B60404279
:101EB0001DB030BC08BC02B01847822302A99B00A9
:101EC0008B81002302904B6608619C4200D0631E08
:101ED0008B604B6101235B42CB81280021AB209AB0
:101EE000019300F0A1F9431C01DA8B232B60002C35
:101EF000DED00022029B1A70DAE7C0460C000020F8
:101F000003008218934200D1704719700133F9E73A
:101F1000014B18687047C0460C00002070B50026C1
:101F20000C4C0D4D641BA410A64209D1002600F0F4
:101F30006BFC0A4C0A4D641BA410A64205D170BD6F
:101F4000B300EB5898470136EEE7B300EB589847DB
:101F50000136F2E7A4280008A4280008A8280008F1
:101F6000A42800087047704770B505000C1E10D0FB
:101F7000043C2368002B00DAE418280000F0E0F8A5
:101F80001D4A1368002B05D163601460280000F01F
:101F9000DFF870BDA34208D9206821188B42F3D125
:101FA00019685B6809182160EEE71A005B68002B6E
:101FB00001D0A342F9D911685018A0420BD1206872
:101FC0000918501811608342E0D118685B68411805
:101FD00011605360DAE7A04202D90C232B60D5E7E9
:101FE000206821188B4203D119685B6809182160A9
:101FF00063605460CAE7C046B002002070B50F4E5F
:102000000D0031680400002902D100F09FFB306010
:102010002900200000F09AFB431C03D101256D42EA
:10202000280070BD0323C51C9D43A842F8D0291A7F
:10203000200000F08BFB0130F2D1EFE7AC02002072
:10204000F7B50322CB1C9343083305001F000C2B6C
:1020500034D20C27B94233D8280000F071F8374E3B
:1020600033681C00002C2FD139002800FFF7C6FF71
:102070000400431C5FD134680094009B002B4AD1BC
:10208000002C52D023682800E3180099019300F037
:102090005DFB019B834248D123682800FF1A390069
:1020A000FFF7ACFF013040D02368DB1923603368B1
:1020B0005A68002A33D1009B336019E0002BC9DA3B
:1020C0000C232B600020FEBD2168C91B20D40B29E6
:1020D0000AD9E2192760A34204D132606368116013
:1020E000536005E05A60F9E76268A3420ED132609E
:1020F000280000F02DF8200007220B30231D90430C
:10210000C21A9842DFD01B1AA350DCE75A60EFE7EF
:1021100023006468A6E7009C63680093ADE71A009B
:102120005B68A342FBD10023DAE70C2328002B6075
:1021300000F00EF8C6E70760DAE7C046B0020020FC
:1021400010B50248FFF70EFF10BDC046A8020020E0
:1021500010B50248FFF707FF10BDC046A8020020D7
:10216000F0B58E6885B01F000C003300029003921A
:10217000BE4254D80C22885E9022D20010422CD04D
:102180000322096923685B1A019363695343019A27
:10219000DD0FED187B1C6D109B182A00AB4201D996
:1021A0001D001A00400527D511000298FFF748FFCF
:1021B000061E2AD0019A216900F0E5FAA289194B7E
:1021C0001A4080231343A381019B2661F6182660E1
:1021D00065613E00ED1A3B00A5601F003A000399BF
:1021E000206800F0A1FA0020A3689B1BA36023686D
:1021F000DB19236005B0F0BD029800F0CDFA061E91
:10220000E2D121690298FFF7AFFE0C230120029A68
:1022100040421360A28934331343A381EAE73E00AE
:10222000DCE7C0467FFBFFFFF0B59FB002901C00CB
:102230008B890E0015001B0611D50B69002B0ED1E2
:102240004021FFF7FDFE30603061002805D10C23EE
:10225000029A136001204042D4E0402373610023BE
:10226000292102AA52180B9320331370013102AABC
:1022700010335218137005942C002378002B01D0D2
:10228000252B48D1671BAC420BD03B002A00310004
:102290000298FFF765FF013000D1AEE00B9BDB1920
:1022A0000B932378002B00D1A7E0012253210023B8
:1022B0005242079202AA5218651C0693099308938A
:1022C00013701C93554F29780522380000F050FAFE
:1022D0006C1C069906AB00281FD1CA0604D55327EB
:1022E000202202A8C01902700A0704D553272B2206
:1022F00002A8C01902702A782A2A15D02C000020C2
:102300000A27DA682178651C3039092950D9002854
:1023100011D009920FE00134AFE70123C01B8340C5
:102320000B4325000693CDE7059A101D1268059012
:10233000002A37DBDA6022782E2A0CD162782A2A2A
:102340003BD1059A0234111D12680591002A01DA69
:10235000012252425A60324D03222800217800F0B7
:1023600007FA06AF002806D04023401B8340069A98
:10237000013413430693217806222A48651C3976D6
:1023800000F0F6F900283FD0274B002B29D1072277
:10239000059B07339343083305930B9B03995B1805
:1023A0000B9369E75242DA6002220A430692C2E7BF
:1023B0007A432C0001205218A4E700220A205A6018
:1023C0001100130001342278651C303A092A03D920
:1023D000002BC0D00791BEE741432C000123891890
:1023E000F1E705AA009239003200104B029800E094
:1023F00000BF0390039B0133CFD1B3890B985B06D9
:1024000000D527E71FB0F0BD05AA009239003200C1
:10241000064B029800F07CF8EBE7C04670280008F5
:10242000762800087A2800080000000061210008D2
:10243000F7B5160001938A680B690C00009093426F
:1024400000DA13002200336043321278002A01D0F0
:102450000133336023689B0602D53368023333604F
:102460002268062315001D401A4227D0230043335B
:102470001B785A1E93412268920630D4220001999B
:102480000098089D4332A847013025D006222368D2
:1024900000251340042B05D13368E568ED1AEB43A2
:1024A000DB171D40A3682269934201DD9B1AED18DA
:1024B0000026B54220D1002010E00135E3683268E3
:1024C0009B1AAB42D2DD2200012301990098089F9C
:1024D0001932B8470130F0D101204042FEBD302012
:1024E000E1184331087021005A1C45310978A218BF
:1024F000433202331170C1E7220001230199009891
:10250000089F1A32B8470130E6D00136D1E7000003
:10251000F0B58BB006920A00433207930590039200
:102520000A7E0C00109B782A09D8622A0BD8002A50
:1025300000D1BAE07A490491582A00D18EE02500F2
:1025400042352A7022E0100063381528F7D8FDF7CD
:10255000BFFD16001F00F6FFF6FFF6FFF6FF1F0097
:10256000F6FFF6FFF6FFF6FF9F0036007E00F6FF4F
:10257000F6FFB000F6FF3600F6FFF6FF82002500FA
:102580001A684235111D196013682B7001239EE0F3
:1025900018680968021D0D060BD506681A60002E22
:1025A00003DA2D23039A764213705D4B0A270493B6
:1025B00018E006681A604906F1D536B2EFE70868F8
:1025C000196840C9050602D4400600D5B6B21960A4
:1025D000534B0A2704936F2A00D1023F23000022A5
:1025E00043331A706368A360002B06DB0421226862
:1025F000039D8A43226033430CD0039D3000390091
:10260000FDF7ACFD049B013D5B5C2B7033000600C5
:102610009F42F3D9082F09D12368DB0706D56268EA
:1026200023699A4202DC3023013D2B70039B5B1B24
:102630002361079B210000930598069B09AAFFF7D9
:10264000F7FE013048D1012040420BB0F0BD2022FE
:1026500009680A43226078223249049121004531F9
:102660000A701968226840C9100602D4500600D5C5
:10267000B6B21960D30702D5202313432360002E7E
:1026800001D01027AAE72022236893432360F8E7AC
:102690001A680D68101D4969186013682E0601D567
:1026A000196002E06D06FBD519800023039D2361AC
:1026B000BFE71A68111D19601568002128006268BB
:1026C00000F056F8002801D0401B60606368236169
:1026D0000023039A1370ACE72A0023690699059832
:1026E000079DA8470130AED023689B0715D4099BEE
:1026F000E0689842A9DA1800A7E7220001230699AA
:102700000598079E1932B04701309CD00135E36827
:10271000099A9B1AAB42F0DCE9E70025F7E7C046CF
:10272000812800089228000810B5884202D98B1829
:10273000984208D300239A4207D0CC5CC45401339A
:10274000F9E78B5C8354013AFBD210BD002370B5CE
:10275000064D040008002B60FDF71CFE431C03D14E
:102760002B68002B00D0236070BDC046A40200205F
:10277000C9B28218904201D10020704703788B4281
:10278000FBD00130F6E7002310B59A4200D110BD0E
:10279000CC5CC4540133F8E7F7B506000C00150013
:1027A000002905D11100FFF74BFC04002000FEBDFD
:1027B000002A03D1FFF7D8FB2C00F7E700F01CF844
:1027C0000700854202D84308AB42EFD3290030000E
:1027D000FFF736FC0190002801D1019CE6E72A00B2
:1027E000BD4200D93A0021000198FFF7CCFF21003B
:1027F0003000FFF7B9FBF0E70B1F1B68181F002B19
:1028000001DA0B58C0187047F8B5C046F8BC08BCD0
:102810009E467047F8B5C046F8BC08BC9E46704757
:10282000A200A300A400A500A600A70025692025FA
:10283000692025690A0D0000000000000102030460
:102840000000000000000000010203040607080960
:102850000102030405060708090A0B0C0D0E0F10F0
:1028600002030405060708090A0B0C0D0E0F1010D1
:10287000232D302B2000686C4C0065666745464769
:1028800000303132333435363738394142434445EC
:10289000460030313233343536373839616263645B
:0428A0006566000069
:0428A4009D0100088A
:0428A80075010008AE
:1028AC0000127A000100000004000000100000205B
:1028BC00000000006C010020D40100203C0200202C
:1028CC0000000000000000000000000000000000FC
:1028DC0000000000000000000000000000000000EC
:1028EC0000000000000000000000000000000000DC
:0C28FC00000000000000000000000000D0
:0400000508001E15BC
:00000001FF
